:100000000C9442000C945F000C94CF010C945F00A0
:100010000C945F000C945F000C945F000C945F00E4
:100020000C945F000C945F000C945F000C945F00D4
:100030000C945F000C945F000C945F000C945F00C4
:100040000C945F000C945F000C94B0040C94DE04DC
:100050000C945F000C945F000C945F000C945F00A4
:100060000C945F000C945F00AE2000B0C8001040FC
:10007000813FA1A6A83FA4D300D5F0D922DA12DB94
:10008000208D140011241FBECFEFD8E0DEBFCDBFFE
:1000900011E0A0E0B1E0E6E0FDE002C005900D92C5
:1000A000AC30B107D9F721E0ACE0B1E001C01D925E
:1000B000A338B207E1F70E9449030C9481060C941F
:1000C00000001092B90088E48093B80084E0809327
:1000D000BC00089594EA9093BC00ECEBF0E09081B2
:1000E0009923ECF78093BB0084E88093BC00ECEB91
:1000F000F0E080818823ECF7089584E98093BC00C8
:1001000008958093BB0084E88093BC00ECEBF0E0A2
:1001100080818823ECF7089584E88093BC00ECEBA1
:10012000F0E080818823ECF78091BB000895CF93A5
:10013000DF93ECEBF0E024EAA9EBB0E0CBEBD0E00E
:1001400034E844E9208390819923ECF79C91987FCF
:10015000983011F09031B1F78883308390819923E2
:10016000ECF79C91987F903211F0983529F44083F8
:10017000908194FDFDCFE6CFDF91CF9108950F934D
:100180001F93CF93DF93C82FD62F8A010E94970029
:100190008D2F0E94810081E08C0F0E946A000E94D6
:1001A0008C00F801808384E98093BC00DF91CF91BB
:1001B0001F910F910895CF93DF93D62FC42F0E94E4
:1001C00097008D2F0E9481008C2F0E94810084E96E
:1001D0008093BC00DF91CF910895EF92FF920F932F
:1001E0001F93CF93DF937C01162F88E70E946A004C
:1001F00080E00E948100112371F0E7011150012F6E
:1002000010E00F5F1F4F0E0D1F1D89910E9481008E
:10021000C017D107D1F70E947D00DF91CF911F91C8
:100220000F91FF90EF900895EF92FF920F931F931D
:10023000CF93DF937C018B0188E70E946A0080E402
:100240000E9481000115110549F0E7010E0D1F1DE7
:1002500089910E948100C017D107D1F70E947D00CB
:10026000DF91CF911F910F91FF90EF900895CF9361
:10027000DF9300D000D01F92CDB7DEB7863138F5BE
:10028000683028F5982F990F890F880FECE0F1E07E
:10029000808361836055698391E29A8392E0980F2D
:1002A0009F709B8390E00296807F99279595879514
:1002B000959587959595879595958795805F8C837E
:1002C0008FE78D8365E0CE0101960E94ED000F90CF
:1002D0000F900F900F900F90DF91CF91089560E0F5
:1002E00080E00E94370108951F93CF93DF93CDB72D
:1002F000DEB7C058D1090FB6F894DEBF0FBECDBF30
:10030000FE01319680E8DF011D928A95E9F710E041
:10031000612F80E00E94370160E870E0CE01019615
:100320000E9414011F5F183099F70E946F01C05896
:10033000DF4F0FB6F894DEBF0FBECDBFDF91CF9178
:100340001F9108951F93CF93DF93CDB7DEB76C97BE
:100350000FB6F894DEBF0FBECDBF182F0E9461000C
:10036000E8E6F0E0DE0111969E01245E3F4F8491A5
:100370008D933196A217B307D1F71C8F6CE1CE0194
:1003800001960E94ED000E9474016C960FB6F894DD
:10039000DEBF0FBECDBFDF91CF911F9108951F9299
:1003A0000F920FB60F9211242F933F934F935F93A9
:1003B0006F937F938F939F93AF93BF93EF93FF932D
:1003C0008091160190911701009759F410928500C1
:1003D0001092840081E090E09093170180931601C1
:1003E0001EC00197E1F48091840090918500909364
:1003F00019018093180110921701109216018F3F76
:10040000910538F08FEF90E09093190180931801D7
:1004100006C08C33910518F481600E943B05FF9162
:10042000EF91BF91AF919F918F917F916F915F916C
:100430004F913F912F910F900FBE0F901F901895E5
:10044000559A569A84B5806884BD84B5806284BD0F
:1004500084B5836084BD85B5826085BD0895529A58
:10046000549A579A209A0895892B29F45C985A9A9D
:100470005F98289A08955A985C9A28985F9A0895E8
:1004800085E0809381001092800008955398E9E6FA
:10049000F0E0808184608083E99A789408953A9AA4
:1004A0000895429800C00000429A83E08A95F1F7CF
:1004B000000042980895CF92DF92EF92FF926091F0
:1004C00012017091130180911401909115010E9405
:1004D000F5059B01AC0160917F01709180018091D5
:1004E0008101909182010E9450050E94BD056B011F
:1004F0007C0160937B0170937C0180937D019093DC
:100500007E0160910E0170910F0180911001909118
:1005100011010E94F5059B01AC016091670170918A
:1005200068018091690190916A010E9450050E94C2
:10053000BD0560936B0170936C0180936D01909386
:100540006E018091040190910501A0910601B09186
:1005500007018C159D05AE05BF0564F0B095A0950B
:10056000909581959F4FAF4FBF4FC816D906EA06A9
:10057000FB062CF417BC18BC80E00E943B054091A0
:100580006B0150916C0160916D0170916E018091D1
:10059000000190910101A0910201B0910301841723
:1005A0009507A607B70764F0B095A095909581953B
:1005B0009F4FAF4FBF4F481759076A077B072CF46F
:1005C00017BC18BC80E00E943B0560917F017091D0
:1005D000800180918101909182010E94BD0560930C
:1005E000120170931301809314019093150160918F
:1005F0006701709168018091690190916A010E9480
:10060000BD0560930E0170930F01809310019093CC
:100610001101FF90EF90DF90CF900895CF93DF937B
:1006200081E691E00E947A04C1E6D1E06881798197
:10063000072E000C880B990B0E94F50560937F0133
:100640007093800180938101909382016A817B8104
:10065000072E000C880B990B0E94F505609367012B
:10066000709368018093690190936A016C817D8128
:10067000072E000C880B990B0E94F50560937701FB
:10068000709378018093790190937A01DF91CF91F3
:1006900008959F92AF92BF92CF92DF92EF92FF9216
:1006A0000F931F93CF93DF930E9440020E94460254
:1006B00087E690E00E9408050E9420020E942F0217
:1006C0000E944F020E9423048FEA0E94A2017894A4
:1006D000C4E6D0E012E30F2EF4E6BF2EF02D0F2E6D
:1006E000F4EBCF2EF02D0F2EF7EDDF2EF02D0F2E89
:1006F000F5EA9F2EF02D0F2EFBE9AF2EF02D68941A
:10070000EE24E7F80F2EFCE8FF2EF02D0DEC86C04E
:1007100080910A0190910B01019690930B018093B7
:100720000A018436910541F40E940E030E945B0287
:1007300010920B0110920A01C436D10521F40E94D7
:100740005102C0E0D0E021960E94210590931B0148
:1007500080931A01811521E0920709F45FC0863663
:10076000910581F480911801909119014A9718F42C
:1007700017BC18BC53C081E090E00E94340207BD52
:1007800008BD4CC08236910539F480E090E00E94AB
:100790003402E7BCF8BC42C08237910581F48091F5
:1007A0001801909119014A9718F417BC18BC36C06B
:1007B00081E090E00E943402A7BCD8BC2FC08C36E8
:1007C000910581F480911801909119014A9718F4CC
:1007D00017BC18BC23C081E090E00E943402D7BC53
:1007E00098BC1CC08337910519F417BC18BC16C0FF
:1007F0008737910539F480E090E00E943402C7BC4D
:10080000B8BC0CC08536910539F480E090E00E94B8
:100810003402B7BCC8BC02C017BD18BD8091080126
:1008200090910901892B09F073CF80E090E0DF916E
:10083000CF911F910F91FF90EF90DF90CF90BF90DD
:10084000AF909F90089540E050E06BE670E080ED3F
:1008500090E00E94DB0040E050E06CE170E080ED51
:1008600090E00E94DB0080ED90E00E946A00089515
:10087000CF93DF93EC01AC016BE370E080ED90E08F
:100880000E94BF00AE014F5F5F4F6CE370E080EDF0
:1008900090E00E94BF00DF91CF910895CF93DF9346
:1008A000EC01AC016DE370E080ED90E00E94BF00D0
:1008B000AE014F5F5F4F6EE370E080ED90E00E940D
:1008C000BF00DF91CF910895CF93DF93EC01AC018E
:1008D0006FE370E080ED90E00E94BF00AE014F5FDB
:1008E0005F4F60E470E080ED90E00E94BF00DF9118
:1008F000CF9108950F931F93CF93DF9300D0CDB77F
:10090000DEB78C01CE0101960E943804898190E007
:10091000982F88272A81822BF80191838083CE012A
:1009200001960E944E04898190E0982F88272A81A1
:10093000822BF80193838283CE0101960E94640486
:10094000898190E0982F88272A81822BF80195834E
:1009500084830F900F90DF91CF911F910F91089595
:100960001F920F920FB60F9211242F938F939F9384
:10097000EF93FF938091C0002091C6008C71E091AD
:100980001E01EF5FEF7190911D01E91739F0E093BF
:100990001E01F0E0EF5DFE4F208301C082E09091E8
:1009A0001C01892B80931C01FF91EF919F918F91E6
:1009B0002F910F900FBE0F901F9018951F920F92BE
:1009C0000FB60F9211248F939F93EF93FF93909103
:1009D000200180911F01981769F0E0911F01EF5FDE
:1009E000EF71E0931F01F0E0EF5BFE4F8081809399
:1009F000C60005C0E1ECF0E080818F7D8083FF912F
:100A0000EF919F918F910F900FBE0F901F901895AF
:100A10001092200110921F0110921E0110921D01D0
:100A200099231CF422E02093C00090789093C50095
:100A30008093C40088E98093C10086E08093C2005F
:100A4000089590911E0180911D01981789F0909151
:100A50001D019F5F9F71E92FF0E0EF5DFE4F8081E8
:100A600020911C0190931D0110921C0190E00895AB
:100A700080E091E00895209120012F5F2F719091E7
:100A80001F012917E1F3E22FF0E0EF5BFE4F8083B7
:100A900020932001E1ECF0E0808180628083089562
:100AA0005058BB27AA270E9468050C9447060E944D
:100AB000390638F00E94400620F039F49F3F19F4BF
:100AC00026F40C9436060EF4E095E7FB0C94300601
:100AD000E92F0E94580658F3BA1762077307840774
:100AE000950720F079F4A6F50C947A060EF4E095BB
:100AF0000B2EBA2FA02D0B01B90190010C01CA01D8
:100B0000A0011124FF27591B99F0593F50F4503E82
:100B100068F11A16F040A22F232F342F4427585F74
:100B2000F3CF469537952795A795F0405395C9F78C
:100B30007EF41F16BA0B620B730B840BBAF0915044
:100B4000A1F0FF0FBB1F661F771F881FC2F70EC0E3
:100B5000BA0F621F731F841F48F4879577956795B6
:100B6000B795F7959E3F08F0B0CF9395880F08F0A2
:100B70009927EE0F9795879508950E94C40568946C
:100B8000B1110C947B0608950E94600688F09F576F
:100B900098F0B92F9927B751B0F0E1F0660F771FA1
:100BA000881F991F1AF0BA95C9F714C0B13091F097
:100BB0000E947A06B1E008950C947A06672F782F88
:100BC0008827B85F39F0B93FCCF38695779567955C
:100BD000B395D9F73EF490958095709561957F4FC8
:100BE0008F4F9F4F0895E89409C097FB3EF490956E
:100BF0008095709561957F4F8F4F9F4F9923A9F0F6
:100C0000F92F96E9BB279395F69587957795679584
:100C1000B795F111F8CFFAF4BB0F11F460FF1BC0C8
:100C20006F5F7F4F8F4F9F4F16C0882311F096E95B
:100C300011C0772321F09EE8872F762F05C0662309
:100C400071F096E8862F70E060E02AF09A95660FC2
:100C5000771F881FDAF7880F9695879597F908957B
:100C600097F99F6780E870E060E008959FEF80EC5F
:100C7000089500240A941616170618060906089502
:100C800000240A9412161306140605060895092E68
:100C90000394000C11F4882352F0BB0F40F4BF2BD7
:100CA00011F460FF04C06F5F7F4F8F4F9F4F089517
:100CB00057FD9058440F551F59F05F3F71F047950D
:100CC000880F97FB991F61F09F3F79F087950895F2
:100CD000121613061406551FF2CF4695F1DF08C011
:100CE000161617061806991FF1CF8695710561052E
:100CF00008940895E894BB2766277727CB0197F9D6
:060D00000895F894FFCFF6
:0C0D0600BC340000E45700000100640051
:00000001FF
